:020000040800F2
:1000000000500020C102000811030008110300087D
:10001000110300081103000811030008000000008C
:1000200000000000000000000000000011030008B4
:10003000110300080000000011030008110300086C
:100040001103000811030008110300081103000840
:100050001103000811030008110300081103000830
:100060001103000811030008110300081103000820
:100070001103000811030008110300081103000810
:100080001103000811030008110300081103000800
:1000900011030008110300081103000811030008F0
:1000A00011030008110300081103000811030008E0
:1000B00011030008110300081103000811030008D0
:1000C00011030008110300081103000811030008C0
:1000D00011030008110300081103000811030008B0
:1000E00011030008110300080000000011030008BC
:1000F0001103000811030008110300081103000890
:10010000110300081103000811030008110300087F
:10011000110300081103000811030008110300086F
:10012000110300081103000811030008110300085F
:1001300010B5054C237833B9044B13B10448AFF321
:1001400000800123237010BD00000020000000008B
:100150005C03000808B5034B1BB103490348AFF328
:10016000008008BD00000000040000205C030008BF
:1001700080B400AF1E4B1B681D4A43F480331360EC
:1001800000BF1B4B1B6803F40033002BF9D0194B45
:100190001B68184A43F002031360154B5B68144A4E
:1001A00043F480335360124B5B68114A43F4E0130D
:1001B00053600F4B1B680E4A43F08073136000BFFF
:1001C0000B4B1B6803F00073002BF9D0084B5B68E6
:1001D000074A43F00203536000BF054B5B6803F01E
:1001E0000803002BF9D000BF00BFBD4680BC70479C
:1001F000001002400020024080B400AF0B4B9B690E
:100200000A4A43F400639361094B47229A62084B00
:100210004FF6FF72DA62064B1B68054A43F0010392
:10022000136000BFBD4680BC704700BF0010024095
:10023000002C014080B483B000AF7860074B0022EF
:100240005A6200BF054B5B6A7A689A42FAD800BFCF
:1002500000BF0C37BD4680BC704700BF002C01407A
:1002600080B500AFFFF784FFFFF7C6FF124B9B6915
:10027000114A43F004039361104B5B680F4A23F06B
:10028000F00353600D4B5B680C4A43F0200353604E
:100290000A4BDB68094A43F40073D3600120FFF77F
:1002A000C9FF064BDB68054A23F40073D3600120C5
:1002B000FFF7C0FF00BFEBE700100240000801405D
:1002C0000D488546AFF300800C480D490D4A0023C8
:1002D00002E0D458C4500433C4188C42F9D30A4AFB
:1002E0000A4C002301E013600432A242FBD300F069
:1002F00011F8FFF7B5FFFEE70050002000000020D6
:10030000000000207C030008000000201C000020EA
:10031000FEE7000070B500260C4D0D4C641BA410C8
:10032000A64209D100F01AF800260A4D0A4C641BB7
:10033000A410A64205D170BD55F8043B984701367C
:10034000EEE755F8043B98470136F2E774030008DE
:10035000740300087403000878030008F8B500BFB0
:10036000F8BC08BC9E467047F8B500BFF8BC08BC96
:040370009E467047EE
:040374005501000827
:040378003101000847
:04000005080002C12C
:00000001FF
