:020000040800F2
:1000000000500020A5070008F5070008F5070008C4
:10001000F5070008F5070008F507000800000000D4
:10002000000000000000000000000000F5070008CC
:10003000F507000800000000F5070008F5070008B4
:10004000F5070008F5070008F5070008F5070008A0
:10005000F5070008F5070008F5070008F507000890
:10006000F5070008F5070008F5070008F507000880
:10007000F5070008F5070008F5070008F507000870
:10008000F5070008F5070008F5070008F507000860
:10009000F5070008F5070008F5070008F507000850
:1000A000F5070008F5070008F5070008F507000840
:1000B000F5070008F5070008F5070008F507000830
:1000C000F5070008F5070008F5070008F507000820
:1000D000F5070008F5070008F5070008F507000810
:1000E000F5070008F507000800000000F507000804
:1000F000F5070008F5070008F5070008F5070008F0
:10010000F5070008F5070008F5070008F5070008DF
:10011000F5070008F5070008F5070008F5070008CF
:10012000F5070008F5070008F5070008F5070008BF
:1001300010B5054C237833B9044B13B10448AFF321
:1001400000800123237010BD780000200000000013
:100150002817000808B5034B1BB103490348AFF348
:10016000008008BD000000007C0000202817000867
:1001700080B400AF1C4B1B681A681B4B1B6842F015
:1001800004021A60194B1B681A68184B1B6842F46A
:1001900000321A60164B1B681A68154B1B6822F454
:1001A00070621A60124B1B681A68114B1B6842F48C
:1001B00030621A600F4B1B6841F64C521A600E4BAE
:1001C0001B681A680C4B1B6842F400521A600A4BF9
:1001D0001B681A68084B1B6842F008021A6000BFCF
:1001E000BD4680BC704700BF000000200400002016
:1001F00008000020140000201800002080B483B004
:1002000000AF786000BF084B1B681B6803F08003D9
:10021000002BF8D07A68054B1B68D2B21A6000BF79
:100220000C37BD4680BC70470C0000201000002039
:1002300080B582B000AF78607868FFF7DFFF7B6839
:1002400018460837BD4680BD80B400AF214B1B68FF
:10025000204A43F48033136000BF1E4B1B6803F435
:100260000033002BF9D01C4B1B681B4A43F00203E0
:100270001360184B5B68174A43F480335360154B87
:100280005B68144A23F470135360124B5B68114A85
:1002900043F4E01353600F4B1B680E4A43F0807326
:1002A000136000BF0B4B1B6803F00073002BF9D0E9
:1002B000084B5B68074A43F00203536000BF054BDD
:1002C0005B6803F00803002BF9D000BF00BFBD46F8
:1002D00080BC7047001002400020024080B485B00E
:1002E00000AF7860154B164A5A60144B00229A6092
:1002F000124B1B68114A43F0040313600F4B1B6839
:100300000E4A43F0010313600023FB6009E000BFC5
:100310000A4B1B6803F48033002BF9D0FB680133D0
:10032000FB60FA687B689A42F1DB044B00221A609A
:1003300000BF1437BD4680BC704700BF10E000E02E
:100340003F19010080B400AF0D4BDB690C4A43F04C
:100350000103D3614FF0804347229A624FF08043FC
:100360004FF6FF72DA624FF0804300225A624FF07C
:10037000804301221A6000BFBD4680BC704700BFA9
:100380000010024080B483B000AF78604FF080432B
:1003900000225A6200BF4FF080435A6A7B689A423B
:1003A000F9D300BF00BF0C37BD4680BC704780B595
:1003B00084B000AF78600023FB6006E04FF47A70F1
:1003C000FFF7E0FFFB680133FB60FA687B689A4245
:1003D000F4DB00BF00BF1037BD4680BD80B400AF66
:1003E0000A4B9B69094A43F004039361084B5B681D
:1003F000074A23F00F035360054B5B68044A43F040
:100400000103536000BFBD4680BC7047001002402E
:100410000008014080B400AF0D4B9B690C4A43F0CB
:10042000040393610B4B5B680A4A23F00F0353608C
:10043000084B5B68074A43F008035360054BDB68D1
:10044000044A43F01003D36000BFBD4680BC704730
:10045000001002400008014080B500AFFFF7BEFF6A
:100460000A4BDB68094A23F48073D3601220FFF73C
:1004700035FF064BDB68054A43F48073D3602820C0
:10048000FFF780FFFFF7C6FF00BF80BD00080140F7
:1004900080B400AF064B9B6803F48073002B14BF3D
:1004A00001230023DBB21846BD4680BC704700BF65
:1004B0000008014080B500AF2820FFF763FFFFF779
:1004C000E7FF0346002B10D15020FFF75BFFFFF73B
:1004D000DFFF0346002B08D001230CE0074800F0A3
:1004E000B5FA4FF47A70FFF762FFFFF7D1FF0346CA
:1004F000002BF3D10023184680BD00BF4017000831
:1005000080B582B000AF0023BB710023FB712BE0EC
:1005100000BFFFF7BDFF0346002BFAD01E20FFF7F8
:1005200031FFFFF7B5FF0346002B15D0FB79C3F170
:100530000703012202FA03F35AB297F90630134374
:100540005BB2BB7108E0FB7919460B4800F016FA64
:100550004FF47A70FFF72BFFFFF79AFF0346002B4B
:10056000F1D1FB790133FB71FB79072BD0D9BB7932
:1005700018460837BD4680BD5417000880B584B0C2
:1005800000AF78603960FFF767FFFFF793FF03461E
:10059000002B2ED0FFF7B4FF0346FB73FFF7B0FF2D
:1005A0000346BB73FFF7ACFF03467B73FFF7A8FF5F
:1005B00003463B73FFF7A4FF0346FB72FA7AF97B0D
:1005C000BB7B19447B7B19443B7B0B449A4206D18D
:1005D0007B68FA7B1A703B687A7B1A7012E07B6842
:1005E00000221A703B6800221A70084800F02EFAA8
:1005F00008E07B6800221A703B6800221A700448E9
:1006000000F024FA00BF1037BD4680BD5C1700081B
:100610006C17000880B582B000AFFFF715FEFFF73A
:10062000A7FDFFF78FFE0C4800F010FAFA1DBB1D66
:1006300011461846FFF7A2FFFB791946074800F05C
:100640009DF9BB791946064800F098F94FF4FA6015
:10065000FFF744FE00BFE9E77C1700088417000895
:100660009C17000880B586B000AFF860B9607A606A
:1006700000237B610AE0AFF300800146BB685A1C8F
:10068000BA60CAB21A707B6901337B617A697B6890
:100690009A42F0DB7B6818461837BD4680BD80B5AE
:1006A00086B000AFF860B9607A6000237B6109E032
:1006B000BB685A1CBA601B781846FFF7B9FD7B6906
:1006C00001337B617A697B689A42F1DB7B6818466B
:1006D0001837BD4680BD80B483B000AF78604FF05E
:1006E000FF3318460C37BD4680BC704780B483B0DA
:1006F00000AF786039603B684FF400525A600023C5
:1007000018460C37BD4680BC704780B483B000AF3C
:100710007860012318460C37BD4680BC704780B412
:1007200085B000AFF860B9607A60002318461437CE
:10073000BD4680BC7047000080B586B000AF7860D1
:10074000144A154BD31A7B617B693B61134B1B68C1
:10075000002B02D1114B124A1A60104B1A687B68A9
:1007600013443A699A4207D200F09EFA03460C22DB
:100770001A604FF0FF3309E0084B1B68FB60074B22
:100780001A687B681344054A1360FB6818461837DB
:10079000BD4680BD005000200004000094000020F1
:1007A000E80100200D488546AFF300800C480D4954
:1007B0000D4A002302E0D458C4500433C4188C42BC
:1007C000F9D30A4A0A4C002301E013600432A24222
:1007D000FBD300F06FFAFFF71DFFFEE7005000208B
:1007E0000000002078000020EC17000878000020AE
:1007F000E4010020FEE70000002310B50446C0E934
:100800000033C0E90433836081814366C281836120
:10081000194608225C3000F0F9F90D4B246263623E
:100820000C4BA3620C4BE3620C4B23630C4B9C42BE
:1008300006D003F16802944202D0D0339C4205D125
:1008400004F15800BDE8104000F058BA10BD00BFD8
:100850005D0A00087F0A0008B70A0008DB0A0008E2
:1008600098000020024A0349034800F069B800BF1D
:100870001C000020951500082C00002041680C4B3E
:1008800010B59942044601D000F084FEA168094BDE
:10089000994202D0204600F07DFEE168064B994265
:1008A00004D02046BDE8104000F074BE10BD00BF6B
:1008B00098000020000100206801002010B50B4BBB
:1008C0000B4C0C4A20461A6004210022FFF794FFCB
:1008D00004F1680001220921FFF78EFF04F1D00026
:1008E0000222BDE810401221FFF786BFD001002090
:1008F0009800002065080008014800F000BA00BF19
:10090000D9010020014800F0FBB900BFD901002047
:1009100010B50446FFF7F0FF236A1BB1BDE8104095
:10092000FFF7F0BF044B2362044B1B68002BF5D18B
:10093000FFF7C4FFF2E700BF7D080008D0010020E8
:100940002DE9F8430746884614460026D4E9019568
:10095000B9F1010905D52468002CF7D13046BDE86E
:10096000F883AB89012B07D9B5F90E30013303D0D9
:1009700029463846C04706436835E9E70FB407B54E
:10098000064904AB086853F8042B8168019300F012
:10099000D7FA03B05DF804EB04B0704728000020DC
:1009A000036A70B505460E4684680BB9FFF7B0FFC1
:1009B000636EDB0705D4A389980502D4A06D00F00F
:1009C0009EF9A389190702D52369002B35D1214649
:1009D000284600F0C5F880B34FF0FF35636EDA07A4
:1009E00005D4A3899B0502D4A06D00F089F928469F
:1009F00070BD002B04DAA2699A4217DC0A2915D0CF
:100A000023685A1C22601970A36816F8011F013B65
:100A1000A3600029EDD1002B11DA22460A212846D5
:100A200000F05FF80130D7D00A25D7E722462846E4
:100A300000F057F80130E7D1CEE7013EE4E7236844
:100A40005A1C22600A221A70EEE70000024B01468F
:100A50001868FFF7A5BF00BF2800002010B50C469E
:100A6000B1F90E1000F0FCF80028ABBF636DA3894C
:100A70001B1823F48053ACBF6365A38110BD2DE91F
:100A8000F0411F468B890546DB050C46164605D509
:100A900002230022B1F90E1000F0D0F8A3893246EB
:100AA00023F48053A38128463B46B4F90E10BDE8D9
:100AB000F04100F0E7B810B50C46B1F90E1000F0A7
:100AC000BDF8431CA38915BF606523F4805343F42C
:100AD0008053A38118BFA38110BDB1F90E1000F09F
:100AE0009DB8F8B50E461446054618B1036A0BB911
:100AF000FFF70EFFA369A360A3891A0701D5236935
:100B000043B92146284600F02BF818B14FF0FF37C3
:100B10003846F8BD23682269F6B2981A63693746E9
:100B2000834205DC2146284600F034FD0028EDD143
:100B3000A368013BA36023685A1C22601E7062698F
:100B4000431C9A4204D0A389DB07E1D50A2EDFD1EA
:100B50002146284600F01EFD0028D9D0D6E7000027
:100B600038B5294B054618680C4618B1036A0BB90D
:100B7000FFF7CEFEB4F90C30190722D4DA0607D4F9
:100B800009222A6043F040034FF0FF30A38133E095
:100B9000580712D5616B41B104F14403994202D068
:100BA000284600F0AFF800236363A38923F02403F1
:100BB000A3810023636023692360A38943F00803B2
:100BC000A38123694BB9A38903F42073B3F5007F94
:100BD00003D02146284600F02AFDB4F90C3013F06A
:100BE00001020AD00022A26062695242A261226917
:100BF00042B913F08000C5D138BD990758BF62696A
:100C0000A260F4E70020F7E7280000200346024432
:100C1000934200D1704703F8011BF9E738B5002370
:100C2000054D044608462B60FFF755FD431C02D1D5
:100C30002B6803B1236038BDD401002038B50446C9
:100C4000084611460022054D2A601A46FFF767FD47
:100C5000431C02D12B6803B1236038BDD4010020AE
:100C600038B50446084611460022054D2A601A464A
:100C7000FFF7F8FC431C02D12B6803B1236038BD99
:100C8000D401002038B50446084611460022054D1F
:100C90002A601A46FFF703FD431C02D12B6803B1FB
:100CA000236038BDD4010020014B1868704700BF95
:100CB0002800002070B500260C4D0D4C641BA410BC
:100CC000A64209D100F030FD00260A4D0A4C641BF3
:100CD000A410A64205D170BD55F8043B98470136D3
:100CE000EEE755F8043B98470136F2E7E4170008B1
:100CF000E4170008E4170008E81700087047704779
:100D00007047000038B50546002940D051F8043C32
:100D10000C1F002BB8BFE41800F0DEF81C4A136863
:100D200033B9636014602846BDE8384000F0DAB893
:100D3000A34208D9206821188B4201BF19685B685B
:100D400009182160EDE71A465B680BB1A342FAD996
:100D500011685018A0420BD12068014450188342FA
:100D60001160E0D118685B68084410605360DAE7EE
:100D700002D90C232B60D6E7206821188B4201BFD3
:100D800019685B680918216063605460CBE738BD5F
:100D9000E001002070B50F4E0C463168054611B9D0
:100DA00000F0A4FC30602146284600F09FFC431C64
:100DB00003D14FF0FF34204670BDC41C24F003045F
:100DC000A042F8D0211A284600F090FC0130F2D160
:100DD000EFE700BFDC0100202DE9F843CD1C25F032
:100DE000030508350C2D38BF0C25002D064601DB08
:100DF000A94204D90C2333600020BDE8F883DFF852
:100E0000D48000F069F8D8F800301C4644BB29466D
:100E10003046FFF7BFFF431C044658D1D8F80040C6
:100E20002746002F43D1002C4BD02368394630464B
:100E300004EB030900F05AFC814542D12168304699
:100E40006D1A2946FFF7A6FF01303AD023682B44DC
:100E50002360D8F800305A6862BBC8F800700FE011
:100E60002268521B20D40B2A17D96119A34225608E
:100E700018BF5960636808BFC8F8001062514B6022
:100E8000304600F02FF804F10B00231D20F007007E
:100E9000C21A1CBF1B1AA350AFE76268A3420CBF63
:100EA000C8F800205A60EBE723466468AEE73C468A
:100EB0007F68B6E71A465B68A342FBD10023536004
:100EC000DEE70C233046336000F00CF894E7056051
:100ED000D6E700BFE00100200148FFF710BF00BFC8
:100EE000D80100200148FFF70BBF00BFD801002048
:100EF000936810B4013B002B936007DA9469A34216
:100F000001DB0A2902D110BCFFF7EBBD1368581CA6
:100F100010601970084610BC7047F8B506460F46B9
:100F20001446D518AC4201D1002007E03A463046BD
:100F300014F8011BFFF7DCFF431CF3D1F8BD0000E0
:100F40002DE9F04F0D461446984606469DB018B15F
:100F5000036A0BB9FFF7DCFC6B6ED90705D4AB89CC
:100F60009A0502D4A86DFFF7CAFEAB891B0701D50D
:100F70002B699BB929463046FFF7F2FD70B16B6EC5
:100F8000DC0704D54FF0FF301DB0BDE8F08FAB8912
:100F90009805F7D4A86DFFF7B3FEF3E70023099394
:100FA00020238DF8293030234FF00109CDF80C8033
:100FB000DFF8A8818DF82A3023469A4613F8012BD2
:100FC0000AB1252AF9D1BAEB040B0BD05B462246B5
:100FD00029463046FFF7A1FF013000F0A780099AAB
:100FE0005A4409929AF80030002B00F09F800023A9
:100FF0004FF0FF32CDE905230AF1010A049307936C
:101000008DF853301A935446052214F8011B5348A7
:1010100000F07CFB049AD8B9D10644BF20238DF898
:101020005330130744BF2B238DF853309AF8003008
:101030002A2B15D0544600204FF00A0C079A21465F
:1010400011F8013B303B092B4BD9B0B1079214E0AA
:10105000A0EB080309FA03F31343A2460493D2E773
:10106000039B191D1B680391002BBBBF5B4242F021
:10107000020207930793B8BF049223782E2B0AD15C
:1010800063782A2B32D1039B02341A1D1B6803920A
:1010900043EAE3730593DFF8C8A0032250462178A2
:1010A00000F034FB38B14022049BA0EB0A008240E0
:1010B00013430134049314F8011B062229488DF8C8
:1010C000281000F023FB00283FD0274B1BBB039BBD
:1010D000073323F0070308330393099B3B44099329
:1010E0006AE70C4601200CFB0232A8E700234FF010
:1010F0000A0C194601340593204610F8012B303AAA
:10110000092A03D9002BC6D00591C4E70446012360
:101110000CFB0121F0E703AB00932A463046134B4A
:1011200004A9AFF300800746781CD6D16B6ED907AF
:1011300005D4AB899A0502D4A86DFFF7E1FDAB8910
:101140005B063FF51FAF09981EE703AB00932A46E5
:101150003046064B04A900F07DF8E4E7B11700081B
:10116000B7170008BB170008000000001B0F00089D
:101170002DE9F047164698468A680B690746934260
:10118000B8BF1346336091F843200C46DDF8209039
:101190000AB1013333602368990642BF33680233D2
:1011A0003360256815F0060506D104F1190AE368D5
:1011B00032689B1AAB422BDC94F843302268003B28
:1011C00018BF0123920630D44146384604F1430249
:1011D000C847013023D02368226903F00603042B9B
:1011E00014BF002533684FF0000608BFE56804F11E
:1011F0001A0408BFED1A54F8123C08BF25EAE57539
:101200009342C4BF9B1AED18B5421AD1002008E0E2
:101210000123524641463846C847013003D14FF0BA
:10122000FF30BDE8F0870135C1E73020E11881F8D3
:1012300043005A1C94F845102244023382F84310AC
:10124000C2E70123224641463846C8470130E6D06E
:101250000136D9E72DE9FF470F7E9146782F80466A
:101260000C469A460C9E01F1430207D8622F0AD819
:10127000002F00F0D380582F00F0BA8004F142060E
:1012800084F842703AE0A7F16303152BF6D801A168
:1012900051F823F0ED120008011300087D12000838
:1012A0007D1200087D1200087D120008011300085D
:1012B0007D1200087D1200087D1200087D120008D2
:1012C000031400082B130008BD1300087D1200084A
:1012D0007D120008251400087D1200082B13000859
:1012E0007D1200087D120008C513000833681A1D1E
:1012F0001B68326004F1420684F8423001239EE00C
:1013000033682068191D3160060601D51D6803E0A9
:101310004506FBD5B3F90050002D03DA2D236D42AD
:1013200084F843300A23594811E0216833680806DD
:1013300053F8045B02D4490648BFADB26F2F336047
:1013400014BF0A2308235148002184F8431066681B
:10135000002EA8BF2168A660A4BF21F0040121606F
:101360000DB9002E4BD01646B5FBF3F103FB115718
:10137000C75D06F8017D2F46BB420D46F4D9082B08
:101380000BD12368DF0708D5236961689942DEBF66
:10139000302306F8013C06F1FF36921B22614B46D2
:1013A00021464046CDF800A003AAFFF7E1FE013038
:1013B0004AD14FF0FF3004B0BDE8F087236843F016
:1013C000200323607827324884F845702368316809
:1013D0001F0651F8045B02D45F0648BFADB231600E
:1013E000D90744BF43F0200323601DB11023ABE7AE
:1013F0002648E9E7236823F020032360F6E7164632
:10140000BDE733682568181D616930602E061B68CA
:1014100001D5196002E06806FBD519800023164645
:101420002361BCE7336800211A1D32601E686268C0
:10143000304600F06BF908B1801B6060636823617F
:10144000002384F84330AAE73246494640462369E0
:10145000D0470130ADD023689B0713D4E068039BCD
:101460009842B8BF1846A6E701233246494640468F
:10147000D04701309DD00135E36803995B1AAB4238
:10148000F2DCEBE7002504F11906F5E7C2170008C6
:10149000D3170008B1F90C20F8B5160705460C461D
:1014A00054D44B68002B02DC0B6C002B48DDE66A41
:1014B000002E45D0002312F480522F68216A2B6041
:1014C00030D0626DA389590705D56368D21A636B62
:1014D0000BB1236CD21A00232846E66A216AB04772
:1014E000431CA38906D129681D292BD8284A0A4103
:1014F000D60727D4002262602269D904226004D56D
:10150000421C01D12B6803B96065616B2F60B9B1D2
:1015100004F14403994202D02846FFF7F3FB00236D
:1015200063630DE001232846B0470246501CC9D131
:101530002B68002BC6D01D2B01D0162B1DD12F6080
:10154000002021E043F040031BB21AE00F69002F96
:10155000F6D0930718BF00230E6808BF4B69F61B2F
:101560000F608B60002EEBDD33463A462846216A39
:10157000D4F828C0E047002807DCB4F90C3043F069
:1015800040034FF0FF30A381F8BD0744361AE9E766
:10159000FEFFBFDF38B50B6905460C4613B90025C1
:1015A000284638BD18B1036A0BB9FFF7B1F9B4F991
:1015B0000C30002BF3D0626ED00704D4990502D40E
:1015C000A06DFFF79CFB28462146FFF763FF636E83
:1015D0000546DA07E4D4A3899B05E1D4A06DFFF7A3
:1015E0008FFBDDE770B50C46B1F90E1015460029EA
:1015F0001E4696B00CDAA389002113F0800F14BFA9
:1016000040234FF48063002031602B6016B070BD22
:101610006A4600F049F80028EDDB019901F47041B9
:10162000A1F50053594259414FF48063EBE78B8990
:10163000F7B59D0706460C4607D504F1470323601E
:1016400023610123636103B0F0BD6A4601ABFFF77C
:10165000C9FF009F054639463046FFF7BDFB48B934
:10166000B4F90C309A05EED423F0030343F00203DF
:10167000A381E2E7A389C4E9040743F08003A381BF
:10168000019B20605BB13046B4F90E1000F01EF8EB
:1016900028B1A38923F0030343F00103A381A389A5
:1016A0001D43A581CFE7000038B50023064D044651
:1016B000084611462B60FFF719F8431C02D12B682E
:1016C00003B1236038BD00BFD401002038B500232A
:1016D000054D044608462B60FFF717F8431C02D15E
:1016E0002B6803B1236038BDD401002038B5002336
:1016F000054D044608462B60FFF71EF8431C02D137
:101700002B6803B1236038BDD4010020034610B517
:10171000C9B202449342184601D1002003E0047884
:1017200001338C42F6D110BDF8B500BFF8BC08BC3F
:101730009E467047F8B500BFF8BC08BC9E4670478F
:1017400050696E204973205374696C6C2048696736
:101750006800000069203D2025640A004368656335
:101760006B53756D204572726F7200005265737015
:101770006F6E7365204572726F72000048656C6C05
:101780006F20000054656D7065726174757265201C
:101790003D202564C2B0430A0000000048756D6911
:1017A00064697479202020203D20256425250A0ABB
:1017B00000232D302B2000686C4C00656667454681
:1017C00047003031323334353637383941424344BB
:1017D000454600303132333435363738396162634B
:0417E00064656600D6
:0417E40055010008A3
:0417E80031010008C3
:1017EC00181002401C100240000801400044004048
:1017FC0004440040084400400C4400400000000039
:10180C0003000000980000202C00002000000000C5
:10181C00980000200001002068010020000000005A
:10182C0000000000000000000000000000000000AC
:10183C00000000000000000000000000000000009C
:10184C00000000000000000000000000000000008C
:08185C00000000000000000084
:04000005080007A543
:00000001FF
