:020000040800F2
:100000000028002065170008FD13000805140008EB
:100010000D140008151400081D140008000000004D
:10002000000000000000000000000000251400088F
:1000300031140008000000003D14000849140008B5
:10004000AD170008AD170008AD170008AD17000880
:10005000AD170008AD170008AD170008AD17000870
:10006000AD170008AD170008AD170008AD17000860
:10007000AD170008AD170008AD170008AD17000850
:10008000AD170008AD170008AD170008AD17000840
:10009000AD170008AD170008AD170008AD17000830
:1000A000AD170008AD170008AD170008AD17000820
:1000B000AD170008AD17000800000000AD170008DC
:1000C000AD1700080000000000000000AD17000898
:1000D00000000000AD170008AD1700080000000088
:1000E000AD170008AD170008AD17000800000000AC
:1000F0000000000000000000000000000000000000
:0C01000000000000000000005FF808F1A3
:10010C0010B5054C237833B9044B13B10448AFF345
:10011C0000800123237010BD70000020000000003F
:10012C00B03B000808B5034B1BB103490348AFF3C0
:10013C00008008BD0000000074000020B03B0008E7
:10014C0081F0004102E000BF83F0004330B54FEA7C
:10015C0041044FEA430594EA050F08BF90EA020FE9
:10016C001FBF54EA000C55EA020C7FEA645C7FEA7C
:10017C00655C00F0E2804FEA5454D4EB5555B8BF9F
:10018C006D420CDD2C4480EA020281EA030382EA10
:10019C00000083EA010180EA020281EA0303362DA2
:1001AC0088BF30BD11F0004F4FEA01314FF4801C75
:1001BC004CEA113102D0404261EB410113F0004F87
:1001CC004FEA03334CEA133302D0524263EB43033E
:1001DC0094EA050F00F0A780A4F10104D5F1200EDC
:1001EC000DDB02FA0EFC22FA05F2801841F1000137
:1001FC0003FA0EF2801843FA05F359410EE0A5F10B
:10020C0020050EF1200E012A03FA0EFC28BF4CF03B
:10021C00020C43FA05F3C01851EBE37101F00045F1
:10022C0007D54FF0000EDCF1000C7EEB00006EEBFE
:10023C000101B1F5801F1BD3B1F5001F0CD3490888
:10024C005FEA30004FEA3C0C04F101044FEA4452DF
:10025C0012F5800F80F09A80BCF1004F08BF5FEA66
:10026C00500C50F1000041EB045141EA050130BD46
:10027C005FEA4C0C404141EB0101013C28BFB1F558
:10028C00801FE9D291F0000F04BF01460020B1FAA3
:10029C0081F308BF2033A3F10B03B3F120020CDA76
:1002AC000C3208DD02F1140CC2F10C0201FA0CF054
:1002BC0021FA02F10CE002F11402D8BFC2F1200CB9
:1002CC0001FA02F120FA0CFCDCBF41EA0C0190406F
:1002DC00E41AA2BF01EB0451294330BD6FEA0404B8
:1002EC001F3C1CDA0C340EDC04F11404C4F12002A3
:1002FC0020FA04F001FA02F340EA030021FA04F3B5
:10030C0045EA030130BDC4F10C04C4F1200220FA0B
:10031C0002F001FA04F340EA0300294630BD21FA49
:10032C0004F0294630BD94F0000F83F4801306BF0F
:10033C0081F480110134013D4EE77FEA645C18BF03
:10034C007FEA655C29D094EA050F08BF90EA020F9A
:10035C0005D054EA000C04BF1946104630BD91EA92
:10036C00030F1EBF0021002030BD5FEA545C05D195
:10037C004000494128BF41F0004130BD14F58004D4
:10038C003CBF01F5801130BD01F0004545F0FE4148
:10039C0041F470014FF0000030BD7FEA645C1ABF7D
:1003AC00194610467FEA655C1CBF0B46024650EAB4
:1003BC00013406BF52EA033591EA030F41F40021E0
:1003CC0030BD00BF90F0000F04BF0021704730B566
:1003DC004FF4806404F132044FF000054FF000013B
:1003EC0050E700BF90F0000F04BF0021704730B5FC
:1003FC004FF4806404F1320410F0004548BF4042D1
:10040C004FF000013EE700BF42004FEAE2014FEA25
:10041C0031014FEA02701FBF12F07F4393F07F4F00
:10042C0081F06051704732F07F4208BF704793F003
:10043C007F4F04BF41F40021704730B54FF4607416
:10044C0001F0004521F000411CE700BF50EA010219
:10045C0008BF704730B54FF000050AE050EA0102C2
:10046C0008BF704730B511F0004502D5404261EB32
:10047C0041014FF4806404F132045FEA915C3FF473
:10048C00D8AE4FF003025FEADC0C18BF03325FEA10
:10049C00DC0C18BF033202EBDC02C2F1200300FAC1
:1004AC0003FC20FA02F001FA03FE40EA0E0021FAE6
:1004BC0002F11444BDE600BF70B54FF0FF0C4CF4D4
:1004CC00E06C1CEA11541DBF1CEA135594EA0C0F86
:1004DC0095EA0C0F00F0DEF82C4481EA030621EAC1
:1004EC004C5123EA4C5350EA013518BF52EA0335FC
:1004FC0041F4801143F4801338D0A0FB02CE4FF0AE
:10050C000005E1FB02E506F00042E0FB03E54FF0DD
:10051C000006E1FB03569CF0000F18BF4EF0010ED5
:10052C00A4F1FF04B6F5007F64F5407404D25FEAD1
:10053C004E0E6D4146EB060642EAC62141EA555184
:10054C004FEAC52040EA5E504FEACE2EB4F1FD0CC6
:10055C0088BFBCF5E06F1ED8BEF1004F08BF5FEA44
:10056C00500E50F1000041EB045170BD06F00046F6
:10057C0046EA010140EA020081EA0301B4EB5C04A3
:10058C00C2BFD4EB0C0541EA045170BD41F480119B
:10059C004FF0000E013C00F3AB8014F1360FDEBFC0
:1005AC00002001F0004170BDC4F10004203C35DA9C
:1005BC000C341BDC04F11404C4F1200500FA05F31F
:1005CC0020FA04F001FA05F240EA020001F00042C0
:1005DC0021F0004110EBD37021FA04F642EB060136
:1005EC005EEA430E08BF20EAD37070BDC4F10C0460
:1005FC00C4F1200500FA04F320FA05F001FA04F224
:10060C0040EA020001F0004110EBD37041F100010F
:10061C005EEA430E08BF20EAD37070BDC4F120051A
:10062C0000FA05F24EEA020E20FA04F301FA05F282
:10063C0043EA020321FA04F001F0004121FA04F22A
:10064C0020EA020000EBD3705EEA430E08BF20EAFA
:10065C00D37070BD94F0000F0FD101F00046400034
:10066C0041EB010111F4801F08BF013CF7D041EAB6
:10067C00060195F0000F18BF704703F000465200BA
:10068C0043EB030313F4801F08BF013DF7D043EA8B
:10069C000603704794EA0C0F0CEA135518BF95EA41
:1006AC000C0F0CD050EA410618BF52EA4306D1D1C8
:1006BC0081EA030101F000414FF0000070BD50EAE7
:1006CC00410606BF1046194652EA430619D094EA71
:1006DC000C0F02D150EA013613D195EA0C0F05D15B
:1006EC0052EA03361CBF104619460AD181EA0301AF
:1006FC0001F0004141F0FE4141F470014FF0000067
:10070C0070BD41F0FE4141F4780170BD70B54FF001
:10071C00FF0C4CF4E06C1CEA11541DBF1CEA135581
:10072C0094EA0C0F95EA0C0F00F0A7F8A4EB050463
:10073C0081EA030E52EA03354FEA013100F088805A
:10074C004FEA03334FF0805545EA131343EA126323
:10075C004FEA022245EA111545EA10654FEA0026D8
:10076C000EF000419D4208BF964244F1FD0404F591
:10077C00407402D25B084FEA3202B61A65EB0305ED
:10078C005B084FEA32024FF480104FF4002CB6EBAA
:10079C00020E75EB030E22BFB61A754640EA0C002A
:1007AC005B084FEA3202B6EB020E75EB030E22BF6A
:1007BC00B61A754640EA5C005B084FEA3202B6EBAB
:1007CC00020E75EB030E22BFB61A754640EA9C006A
:1007DC005B084FEA3202B6EB020E75EB030E22BF3A
:1007EC00B61A754640EADC0055EA060E18D04FEAF8
:1007FC00051545EA16754FEA06164FEAC30343EA98
:10080C0052734FEAC2025FEA1C1CC0D111F4801F64
:10081C000BD141EA00014FF000004FF0004CB6E75D
:10082C0011F4801F04BF01430020B4F1FD0C88BFFC
:10083C00BCF5E06F3FF6AFAEB5EB030C04BFB6EB07
:10084C00020C5FEA500C50F1000041EB045170BDFA
:10085C000EF0004E4EEA113114EB5C04C2BFD4EB27
:10086C000C0541EA045170BD41F480114FF0000EAB
:10087C00013C90E645EA060E8DE60CEA135594EA27
:10088C000C0F08BF95EA0C0F3FF43BAF94EA0C0F2A
:10089C000AD150EA01347FF434AF95EA0C0F7FF49F
:1008AC0025AF104619462CE795EA0C0F06D152EAF3
:1008BC0003353FF4FDAE1046194622E750EA4106D7
:1008CC0018BF52EA43067FF4C5AE50EA41047FF4E8
:1008DC000DAF52EA43057FF4EBAE12E74FEA41024B
:1008EC00B2F1E04324BFB3F5001CDCF1FE5C0DD982
:1008FC0001F0004C4FEAC0024CEA5070B2F1004FCC
:10090C0040EB830008BF20F00100704711F0804FCE
:10091C0021D113F13872BCBF01F00040704741F493
:10092C0080114FEA5252C2F11802C2F1200C10FA97
:10093C000CF320FA02F018BF40F001004FEAC1237B
:10094C004FEAD32303FA0CFC40EA0C0023FA02F31F
:10095C004FEA4303CCE77FEA625307D150EA0133F5
:10096C001EBF4FF0FE4040F44000704701F00040C5
:10097C0040F0FE4040F40000704700BF80F00040A3
:10098C0002E000BF81F0004142001FBF5FEA41035B
:10099C0092EA030F7FEA226C7FEA236C6AD04FEA5B
:1009AC001262D2EB1363C1BFD218414048404140A0
:1009BC00B8BF5B42192B88BF704710F0004F40F452
:1009CC00000020F07F4018BF404211F0004F41F46E
:1009DC00000121F07F4118BF494292EA030F3FD03A
:1009EC00A2F1010241FA03FC10EB0C00C3F120034D
:1009FC0001FA03F100F0004302D5494260EB4000DC
:100A0C00B0F5000F13D3B0F1807F06D340084FEA46
:100A1C00310102F10102FE2A51D2B1F1004F40EB3B
:100A2C00C25008BF20F0010040EA030070474900A3
:100A3C0040EB0000013A28BFB0F5000FEDD2B0FA40
:100A4C0080FCACF1080CB2EB0C0200FA0CF0AABF63
:100A5C0000EBC25052421843BCBFD0401843704701
:100A6C0092F0000F81F4000106BF80F40000013207
:100A7C00013BB5E74FEA41037FEA226C18BF7FEADE
:100A8C00236C21D092EA030F04D092F0000F08BF20
:100A9C000846704790EA010F1CBF0020704712F007
:100AAC007F4F04D1400028BF40F00040704712F146
:100ABC0000723CBF00F50000704700F0004343F0AB
:100ACC00FE4040F4000070477FEA226216BF0846E1
:100ADC007FEA23630146420206BF5FEA412390EAA4
:100AEC00010F40F4800070474FF0000304E000BF9A
:100AFC0010F0004348BF40425FEA000C08BF70474B
:100B0C0043F0964301464FF000001CE050EA01020E
:100B1C0008BF70474FF000030AE000BF50EA010223
:100B2C0008BF704711F0004302D5404261EB410110
:100B3C005FEA010C02BF84460146002043F0B64335
:100B4C0008BFA3F18053A3F50003BCFA8CF2083A5A
:100B5C00A3EBC25310DB01FA02FC634400FA02FC63
:100B6C00C2F12002BCF1004F20FA02F243EB02006A
:100B7C0008BF20F00100704702F1200201FA02FCCC
:100B8C00C2F1200250EA4C0021FA02F243EB0200BF
:100B9C0008BF20EADC7070474FF0FF0C1CEAD05203
:100BAC001EBF1CEAD15392EA0C0F93EA0C0F6FD0C4
:100BBC001A4480EA010C400218BF5FEA41211ED0A2
:100BCC004FF0006343EA501043EA5111A0FB01318E
:100BDC000CF00040B1F5000F3EBF490041EAD37163
:100BEC005B0040EA010062F17F02FD2A1DD8B3F1DF
:100BFC00004F40EBC25008BF20F00100704790F04E
:100C0C00000F0CF0004C08BF49024CEA502040EA9F
:100C1C0051207F3AC2BFD2F1FF0340EAC250704765
:100C2C0040F400004FF00003013A5DDC12F1190FA3
:100C3C00DCBF00F000407047C2F10002410021FA15
:100C4C0002F1C2F1200200FA02FC5FEA310040F12D
:100C5C00000053EA4C0308BF20EADC70704792F0A6
:100C6C00000F00F0004C02BF400010F4000F013ADE
:100C7C00F9D040EA0C0093F0000F01F0004C02BFD9
:100C8C00490011F4000F013BF9D041EA0C018FE748
:100C9C000CEAD15392EA0C0F18BF93EA0C0F0AD04E
:100CAC0030F0004C18BF31F0004CD8D180EA010074
:100CBC0000F00040704790F0000F17BF90F0004F0D
:100CCC00084691F0000F91F0004F14D092EA0C0FEF
:100CDC0001D142020FD193EA0C0F03D14B0218BF82
:100CEC00084608D180EA010000F0004040F0FE40C8
:100CFC0040F40000704740F0FE4040F44000704764
:100D0C004FF0FF0C1CEAD0521EBF1CEAD15392EAE2
:100D1C000C0F93EA0C0F69D0A2EB030280EA010CD2
:100D2C0049024FEA402037D04FF0805343EA11116B
:100D3C0043EA10130CF000408B4238BF5B0042F1C9
:100D4C007D024FF4000C8B4224BF5B1A40EA0C006E
:100D5C00B3EB510F24BFA3EB510340EA5C00B3EBA0
:100D6C00910F24BFA3EB910340EA9C00B3EBD10F8E
:100D7C0024BFA3EBD10340EADC001B0118BF5FEAE0
:100D8C001C1CE0D1FD2A3FF650AF8B4240EBC25009
:100D9C0008BF20F0010070470CF0004C4CEA5020CA
:100DAC007F32C2BFD2F1FF0340EAC250704740F419
:100DBC0000004FF00003013A37E792F0000F00F00B
:100DCC00004C02BF400010F4000F013AF9D040EA89
:100DDC000C0093F0000F01F0004C02BF490011F41D
:100DEC00000F013BF9D041EA0C0195E70CEAD15315
:100DFC0092EA0C0F08D142027FF47DAF93EA0C0FFC
:100E0C007FF470AF084676E793EA0C0F04D14B02DF
:100E1C003FF44CAF08466EE730F0004C18BF31F091
:100E2C00004CCAD130F000427FF45CAF31F000438B
:100E3C007FF43CAF5FE700BF80B588B000AF07F12F
:100E4C00100300221A605A609A60DA601E4B9B698C
:100E5C001D4A43F0200393611B4B9B6903F0200355
:100E6C00FB60FB68184B9B69174A43F004039361C2
:100E7C00154B9B6903F00403BB60BB68124B9B6969
:100E8C00114A43F0080393610F4B9B6903F008036D
:100E9C007B607B6800224FF400710C4800F07FFFF0
:100EAC004FF400733B6101237B610023BB61022380
:100EBC00FB6107F110031946044800F0DDFD00BF8B
:100ECC002037BD4680BD00BF00100240000C014021
:100EDC0080B483B000AF0346FB80084B1B68002234
:100EEC005A6200BF054B1B685A6AFB889A42F9D3B9
:100EFC0000BF00BF0C37BD4680BC7047AC00002063
:100F0C0080B586B000AF0023FB753B1D00221A6034
:100F1C005A609A60DA604FF400737B600123BB6007
:100F2C0002233B610023FB603B1D19462C4800F05B
:100F3C00A3FD00224FF40071294800F030FF14206B
:100F4C0000F092FC01224FF40071254800F027FFBD
:100F5C001E20FFF7BDFF0023BB600123FB603B1D80
:100F6C0019461F4800F088FD2820FFF7B1FF4FF409
:100F7C0000711B4800F0FCFE0346002B0CD15020E6
:100F8C00FFF7A6FF4FF40071154800F0F1FE034681
:100F9C00002B01D00123FB7500F05CFC0346114AC9
:100FAC00136000F057FC03460F4A136004E000F096
:100FBC0051FC03460C4A13604FF40071084800F0D2
:100FCC00D7FE0346002B06D0064B1B689A1C064B1B
:100FDC001B689A42EBD8FB7D18461837BD4680BD7E
:100FEC00000C0140940000209800002080B582B0D5
:100FFC0000AF0023FB7166E000F02CFC0346364A80
:10100C00136000F027FC0346344A136004E000F040
:10101C0021FC0346314A13604FF40071304800F054
:10102C00A7FE0346002B06D12B4B1B689A1C2B4B9F
:10103C001B689A42EBD82820FFF74AFF4FF4007147
:10104C00274800F095FE0346002B0ED1FB79C3F127
:10105C000703012202FA03F35BB2DB435AB297F99E
:10106C00063013405BB2BB710BE0FB79C3F1070395
:10107C00012202FA03F35AB297F9063013435BB21A
:10108C00BB7100F0E7FB0346134A136000F0E2FB70
:10109C000346124A136004E000F0DCFB03460F4ADF
:1010AC0013604FF400710E4800F062FE0346002BF3
:1010BC0006D0094B1B689A1C084B1B689A42EBD84C
:1010CC00FB790133FB71FB79072B95D9BB7918465A
:1010DC000837BD4680BD00BF94000020980000205A
:1010EC00000C014080B483B000AF786000BF084BA7
:1010FC001B681B6803F08003002BF8D07A68054B43
:10110C001B68D2B21A6000BF0C37BD4680BC70475A
:10111C00000000200400002080B582B000AF786091
:10112C007868FFF7DFFF7B6818460837BD4680BD3F
:10113C0090B583B000AF00F035FB00F0DBF8FFF7A3
:10114C007BFE00F027FA00F093FA5B4801F0A0FA5E
:10115C005A4801F057FF5A4B1B689B68184601F020
:10116C007BFE564801F04EFF554B1B689B6818469A
:10117C0001F072FE514801F045FF514B1B689B6812
:10118C00184601F069FEFFF7BBFE0346002B00F08A
:10119C008E80FFF72BFF03461A464A4B1A70FFF757
:1011AC0025FF03461A46484B1A70FFF71FFF0346EC
:1011BC001A46464B1A70FFF719FF03461A46444B62
:1011CC001A70FFF713FF03461A46424B1A703D4B39
:1011DC001B781A463C4B1B7813443C4A1278134438
:1011EC003B4A127813443B4A127893425FD1374BF7
:1011FC001B781846FFF778FC0446354B1B781846CD
:10120C00FFF7F0F84FF00002334BFFF77FFA02467E
:10121C000B4610461946FFF761FB0346194620465C
:10122C00FFF7B2FB03461A462C4B1A60274B1B7870
:10123C007B6079682A4801F0E5FE214B1B689B68AE
:10124C00184601F009FE254B1B6826491846FFF786
:10125C00A3FC034624491846FFF752FD03464FF002
:10126C0084411846FFF790FB03461A461F4B1A6041
:10127C00144B1B781846FFF737FC0446124B1B78AF
:10128C001846FFF7AFF84FF00002134BFFF73EFA8A
:10129C0002460B4610461946FFF720FB034619463B
:1012AC002046FFF771FB03461A46114B1A604FF4A8
:1012BC00FA6000F0D9FA54E7AC000020C83B0008F3
:1012CC00200000208C0000208D0000208E000020CB
:1012DC008F00002090000020000024409C00002083
:1012EC00D83B0008000010410000A040A0000020E6
:1012FC00A400002080B590B000AF07F1180328229D
:10130C000021184601F0D3FE3B1D00221A605A60E2
:10131C009A60DA601A610123BB614FF48033FB6180
:10132C0000233B620123BB6202237B634FF48033B7
:10133C00BB634FF4E013FB6307F11803184600F08E
:10134C0047FD0346002B01D000F019F80F237B60FA
:10135C000223BB600023FB604FF480633B610023DE
:10136C007B613B1D0221184600F0B4FF0346002BA5
:10137C0001D000F004F800BF4037BD4680BD80B4FA
:10138C0000AF72B600BF00BFFDE7000080B485B0AF
:10139C0000AF154B9B69144A43F001039361124B48
:1013AC009B6903F00103BB60BB680F4BDB690E4A02
:1013BC0043F08053D3610C4BDB6903F080537B60AB
:1013CC007B680A4B5B68FB60FB6823F0E063FB60A7
:1013DC00FB6843F00073FB60044AFB68536000BF7A
:1013EC001437BD4680BC704700100240000001401D
:1013FC0080B400AF00BFFDE780B400AF00BFFDE7D5
:10140C0080B400AF00BFFDE780B400AF00BFFDE7C4
:10141C0080B400AF00BFFDE780B400AF00BFBD4695
:10142C0080BC704780B400AF00BFBD4680BC704725
:10143C0080B400AF00BFBD4680BC704780B500AF24
:10144C0000F0F6F900BF80BD80B586B000AFF86043
:10145C00B9607A6000237B610AE0AFF3008001463B
:10146C00BB685A1CBA60CAB21A707B6901337B61C3
:10147C007A697B689A42F0DB7B6818461837BD4660
:10148C0080BD80B586B000AFF860B9607A6000238B
:10149C007B6109E0BB685A1CBA601B781846FFF7E1
:1014AC003BFE7B6901337B617A697B689A42F1DB95
:1014BC007B6818461837BD4680BD80B483B000AF3A
:1014CC0078604FF0FF3318460C37BD4680BC704730
:1014DC0080B483B000AF786039603B684FF4005241
:1014EC005A60002318460C37BD4680BC704780B448
:1014FC0083B000AF7860012318460C37BD4680BC22
:10150C00704780B485B000AFF860B9607A60002392
:10151C0018461437BD4680BC7047000080B586B0B5
:10152C0000AF7860144A154BD31A7B617B693B6121
:10153C00134B1B68002B02D1114B124A1A60104B33
:10154C001A687B6813443A699A4207D201F0FEFD8F
:10155C0003460C221A604FF0FF3309E0084B1B685E
:10156C00FB60074B1A687B681344054A1360FB68E1
:10157C0018461837BD4680BD002800200004000026
:10158C00A80000209002002080B400AF00BFBD4630
:10159C0080BC704780B586B000AF07F1080300220D
:1015AC001A605A609A60DA603B4600221A605A60F0
:1015BC001E4B1F4A1A601D4B47225A601B4B0022C0
:1015CC009A601A4B4FF6FF72DA60184B00221A61C0
:1015DC00164B00225A61154B00229A61134801F0F8
:1015EC0007F80346002B01D0FFF7C9FE4FF48053D8
:1015FC00BB6007F1080319460C4801F08DF803464F
:10160C00002B01D0FFF7BBFE00233B6000237B6067
:10161C003B461946054801F041FA0346002B01D020
:10162C00FFF7ADFE00BF1837BD4680BDAC000020F3
:10163C00002C014080B485B000AF78607B681B68DB
:10164C00094A93420BD1094B9B69084A43F4006346
:10165C009361064B9B6903F40063FB60FB6800BF5E
:10166C001437BD4680BC7047002C0140001002406E
:10167C0080B500AF114B124A1A60104B4FF4165242
:10168C005A600E4B00229A600C4B0022DA600B4B16
:10169C0000221A61094B0C225A61084B00229A61F4
:1016AC00064B0022DA61054801F050FA0346002B84
:1016BC0001D0FFF764FE00BF80BD00BFF400002026
:1016CC000044004080B588B000AF786007F110038B
:1016DC0000221A605A609A60DA607B681B681B4AA9
:1016EC0093422FD11A4BDB69194A43F40033D3616F
:1016FC00174BDB6903F40033FB60FB68144B9B69ED
:10170C00134A43F004039361114B9B6903F00403E8
:10171C00BB60BB6804233B6102237B610323FB6139
:10172C0007F1100319460B4800F0A6F908233B619A
:10173C0000237B610023BB6107F1100319460548A8
:10174C0000F09AF900BF2037BD4680BD0044004030
:10175C000010024000080140FFF716FF0B480C492F
:10176C000C4A002302E0D458C4500433C4188C42F1
:10177C00F9D3094A094C002301E013600432A24258
:10178C00FBD301F0E9FCFFF7D3FC7047000000200D
:10179C0070000020543C0008700000208C020020D7
:1017AC00FEE7000080B500AF084B1B68074A43F00A
:1017BC0010031360032000F02BF90F2000F008F841
:1017CC00FFF7E4FD0023184680BD00BF0020024057
:1017DC0080B582B000AF7860124B1A68124B1B7840
:1017EC0019464FF47A73B3FBF1F3B2FBF3F31846DB
:1017FC0000F035F90346002B01D001230EE07B6885
:10180C000F2B0AD8002279684FF0FF3000F00BF94B
:10181C00064A7B681360002300E001231846083752
:10182C00BD4680BD08000020100000200C000020E8
:10183C0080B400AF054B1B781A46054B1B6813444C
:10184C00034A136000BFBD4680BC704710000020E7
:10185C003C01002080B400AF024B1B681846BD460B
:10186C0080BC70473C01002080B584B000AF78602C
:10187C00FFF7F0FFB8607B68FB60FB68B3F1FF3FDC
:10188C0005D00A4B1B781A46FB681344FB6000BF5B
:10189C00FFF7E0FF0246BB68D31AFA689A42F7D802
:1018AC0000BF00BF1037BD4680BD00BF1000002038
:1018BC0080B485B000AF78607B6803F00703FB60F1
:1018CC000C4BDB68BB60BA684FF6FF031340BB6080
:1018DC00FB681A02BB68134343F0BF6343F4003345
:1018EC00BB60044ABB68D36000BF1437BD4680BCE4
:1018FC00704700BF00ED00E080B400AF044BDB6824
:10190C001B0A03F007031846BD4680BC704700BF96
:10191C0000ED00E080B483B000AF03463960FB718A
:10192C0097F90730002B0ADB3B68DAB20C4997F9C0
:10193C0007301201D2B20B4483F800230AE03B6853
:10194C00DAB20849FB7903F00F03043B1201D2B25F
:10195C000B441A7600BF0C37BD4680BC704700BFE5
:10196C0000E100E000ED00E080B489B000AFF86069
:10197C00B9607A60FB6803F00703FB61FB69C3F194
:10198C000703042B28BF0423BB61FB690433062B1C
:10199C0002D9FB69033B00E000237B614FF0FF326F
:1019AC00BB6902FA03F3DA43BB681A407B699A40BD
:1019BC004FF0FF317B6901FA03F3D9437B680B408D
:1019CC00134318462437BD4680BC704780B582B09F
:1019DC0000AF78607B68013BB3F1807F01D30123BA
:1019EC000FE00A4A7B68013B53600F214FF0FF3038
:1019FC00FFF790FF054B00229A60044B07221A60F8
:101A0C00002318460837BD4680BD00BF10E000E03B
:101A1C0080B582B000AF78607868FFF749FF00BFEF
:101A2C000837BD4680BD80B586B000AF0346B960AF
:101A3C007A60FB7300237B61FFF75EFF78617A6845
:101A4C00B9687869FFF790FF024697F90F30114695
:101A5C001846FFF75FFF00BF1837BD4680BD80B545
:101A6C0082B000AF78607868FFF7B0FF0346184685
:101A7C000837BD4680BD000080B48BB000AF7860E5
:101A8C00396000237B6200233B6261E101227B6AA7
:101A9C0002FA03F3FB613B681B68FA691340BB61F4
:101AAC00BA69FB699A4240F050813B685B68974A7F
:101ABC0093425ED0954A934275D8954A934258D03A
:101ACC00934A93426FD8934A934252D0914A93428D
:101ADC0069D8914A93424CD08F4A934263D88F4A2B
:101AEC00934246D08D4A93425DD8122B2AD8122BA2
:101AFC0059D801A252F823F07F1B0008591B00088B
:101B0C006B1B0008AD1B0008B31B0008B31B0008BF
:101B1C00B31B0008B31B0008B31B0008B31B000861
:101B2C00B31B0008B31B0008B31B0008B31B000851
:101B3C00B31B0008B31B0008B31B0008611B000893
:101B4C00751B0008764A934213D02CE03B68DB6887
:101B5C003B6229E03B68DB6804333B6224E03B6872
:101B6C00DB6808333B621FE03B68DB680C333B628D
:101B7C001AE03B689B68002B02D104233B6213E004
:101B8C003B689B68012B05D108233B627B68FA6993
:101B9C001A6109E008233B627B68FA695A6103E029
:101BAC0000233B6200E000BFBB69FF2B01D87B68C0
:101BBC0001E07B6804337B61BB69FF2B02D87B6A35
:101BCC009B0002E07B6A083B9B003B617B691A68C7
:101BDC000F213B6901FA03F3DB431A40396A3B6975
:101BEC0001FA03F31A437B691A603B685B6803F0E4
:101BFC008053002B00F0A9804A4B9B69494A43F063
:101C0C0001039361474B9B6903F00103BB60BB6805
:101C1C00454A7B6A9B08023352F82330FB607B6A8F
:101C2C0003F003039B000F2202FA03F3DB43FA6871
:101C3C001340FB607B683D4A93420DD07B683C4A65
:101C4C00934207D07B683B4A934201D1022304E0C4
:101C5C00032302E0012300E000237A6A02F003026E
:101C6C0092009340FA681343FB602F497B6A9B08F0
:101C7C000233FA6841F823203B685B6803F4801355
:101C8C00002B06D02C4B9A682B49BB6913438B60F5
:101C9C0006E0294B9A68BB69DB43274913408B60EC
:101CAC003B685B6803F40013002B06D0224BDA6808
:101CBC002149BB691343CB6006E01F4BDA68BB6953
:101CCC00DB431D491340CB603B685B6803F4003376
:101CDC00002B06D0184B5A681749BB6913434B604D
:101CEC0006E0154B5A68BB69DB43134913404B6044
:101CFC003B685B6803F48033002B1FD00E4B1A68D3
:101D0C000D49BB6913430B601FE000BF000032108C
:101D1C0000003110000022100000211000001210F1
:101D2C0000001110001002400000014000080140AA
:101D3C00000C014000100140000401400B4B1A68DC
:101D4C00BB69DB43094913400B607B6A01337B623F
:101D5C003B681A687B6A22FA03F3002B7FF496AE79
:101D6C0000BF00BF2C37BD4680BC7047000401404B
:101D7C0080B485B000AF78600B467B807B689A6836
:101D8C007B881340002B02D00123FB7301E000235E
:101D9C00FB73FB7B18461437BD4680BC704780B480
:101DAC0083B000AF78600B467B8013467B707B78EA
:101DBC00002B03D07A887B681A6103E07B881A04B5
:101DCC007B681A6100BF0C37BD4680BC70470000B1
:101DDC0080B586B000AF78607B68002B01D1012301
:101DEC0072E27B681B6803F00103002B00F0878014
:101DFC00924B5B6803F00C03042B0CD08F4B5B688D
:101E0C0003F00C03082B12D18C4B5B6803F480336A
:101E1C00B3F5803F0BD1894B1B6803F40033002BC7
:101E2C006CD07B685B68002B68D101234CE27B682B
:101E3C005B68B3F5803F06D1804B1B687F4A43F447
:101E4C00803313602EE07B685B68002B0CD17B4BDE
:101E5C001B687A4A23F480331360784B1B68774AEB
:101E6C0023F4802313601DE07B685B68B3F5A02F1F
:101E7C000CD1724B1B68714A43F4802313606F4B77
:101E8C001B686E4A43F4803313600BE06B4B1B688A
:101E9C006A4A23F480331360684B1B68674A23F447
:101EAC00802313607B685B68002B13D0FFF7D2FC98
:101EBC00386108E0FFF7CEFC02463B69D31A642B6D
:101ECC0001D9032300E25D4B1B6803F40033002BA4
:101EDC00F0D014E0FFF7BEFC386108E0FFF7BAFC65
:101EEC0002463B69D31A642B01D90323ECE1534B13
:101EFC001B6803F40033002BF0D100E000BF7B68BB
:101F0C001B6803F00203002B63D04C4B5B6803F09F
:101F1C000C03002B0BD0494B5B6803F00C03082B14
:101F2C001CD1464B5B6803F48033002B16D1434B1A
:101F3C001B6803F00203002B05D07B681B69012B87
:101F4C0001D00123C0E13D4B1B6823F0F8027B68F4
:101F5C005B69DB00394913430B603AE07B681B6912
:101F6C00002B20D0364B01221A60FFF773FC38612E
:101F7C0008E0FFF76FFC02463B69D31A022B01D92C
:101F8C000323A1E12D4B1B6803F00203002BF0D0BF
:101F9C002A4B1B6823F0F8027B685B69DB0027493E
:101FAC0013430B6015E0264B00221A60FFF752FC1E
:101FBC00386108E0FFF74EFC02463B69D31A022B4E
:101FCC0001D9032380E11D4B1B6803F00203002B96
:101FDC00F0D17B681B6803F00803002B3AD07B68B8
:101FEC009B69002B19D0174B01221A60FFF732FCAA
:101FFC00386108E0FFF72EFC02463B69D31A022B2E
:10200C0001D9032360E10D4B5B6A03F00203002B43
:10201C00F0D0012000F0CEFA1CE00A4B00221A602E
:10202C00FFF718FC38610FE0FFF714FC02463B6920
:10203C00D31A022B08D9032346E100BF001002403B
:10204C000000424280044242924B5B6A03F002035E
:10205C00002BE9D17B681B6803F00403002B00F014
:10206C00A6800023FB758B4BDB6903F08053002BA0
:10207C000DD1884BDB69874A43F08053D361854B84
:10208C00DB6903F08053BB60BB680123FB75824B9B
:10209C001B6803F48073002B18D17F4B1B687E4A9E
:1020AC0043F480731360FFF7D5FB386108E0FFF74A
:1020BC00D1FB02463B69D31A642B01D9032303E1FC
:1020CC00754B1B6803F48073002BF0D07B68DB68C6
:1020DC00012B06D16F4B1B6A6E4A43F0010313624E
:1020EC002DE07B68DB68002B0CD16A4B1B6A694ABC
:1020FC0023F001031362674B1B6A664A23F0040347
:10210C0013621CE07B68DB68052B0CD1614B1B6AEE
:10211C00604A43F0040313625E4B1B6A5D4A43F052
:10212C00010313620BE05B4B1B6A5A4A23F0010359
:10213C001362584B1B6A574A23F0040313627B68E3
:10214C00DB68002B15D0FFF785FB38610AE0FFF741
:10215C0081FB02463B69D31A41F28832934201D982
:10216C000323B1E04B4B1B6A03F00203002BEED0B0
:10217C0014E0FFF76FFB38610AE0FFF76BFB0246D8
:10218C003B69D31A41F28832934201D903239BE075
:10219C00404B1B6A03F00203002BEED1FB7D012B9D
:1021AC0005D13C4BDB693B4A23F08053D3617B6800
:1021BC00DB69002B00F08780364B5B6803F00C0367
:1021CC00082B61D07B68DB69022B46D1334B002294
:1021DC001A60FFF73FFB386108E0FFF73BFB024654
:1021EC003B69D31A022B01D903236DE0294B1B68E1
:1021FC0003F00073002BF0D17B681B6AB3F5803FB2
:10220C0008D1244B5B6823F400327B689B6821491E
:10221C0013434B601F4B5B6823F474127B68196A81
:10222C007B685B6A0B431B4913434B601B4B0122BE
:10223C001A60FFF70FFB386108E0FFF70BFB024653
:10224C003B69D31A022B01D903233DE0114B1B68C8
:10225C0003F00073002BF0D035E0104B00221A6015
:10226C00FFF7F8FA386108E0FFF7F4FA02463B6929
:10227C00D31A022B01D9032326E0064B1B6803F06B
:10228C000073002BF0D11EE07B68DB69012B07D1BA
:10229C00012319E00010024000700040600042422F
:1022AC000B4B5B68FB60FB6803F480327B681B6A3A
:1022BC009A4206D1FB6803F470127B685B6A9A42FF
:1022CC0001D0012300E0002318461837BD4680BD1D
:1022DC000010024080B584B000AF786039607B6834
:1022EC00002B01D10123D0E06A4B1B6803F00703DC
:1022FC003A689A4210D9674B1B6823F0070265496C
:10230C003B6813430B60634B1B6803F007033A688D
:10231C009A4201D00123B8E07B681B6803F00203EA
:10232C00002B20D07B681B6803F00403002B05D026
:10233C00594B5B68584A43F4E06353607B681B68F5
:10234C0003F00803002B05D0534B5B68524A43F44F
:10235C0060535360504B5B6823F0F0027B689B68C2
:10236C004D4913434B607B681B6803F00103002B42
:10237C0040D07B685B68012B07D1474B1B6803F48B
:10238C000033002B15D101237FE07B685B68022BA7
:10239C0007D1414B1B6803F00073002B09D10123BB
:1023AC0073E03D4B1B6803F00203002B01D10123AA
:1023BC006BE0394B5B6823F003027B685B68364942
:1023CC0013434B60FFF746FAF8600AE0FFF742FA56
:1023DC000246FB68D31A41F28832934201D9032397
:1023EC0053E02D4B5B6803F00C027B685B689B0031
:1023FC009A42EBD1274B1B6803F007033A689A42C9
:10240C0010D2244B1B6823F0070222493B6813436C
:10241C000B60204B1B6803F007033A689A4201D00B
:10242C00012332E07B681B6803F00403002B08D007
:10243C00194B5B6823F4E0627B68DB681649134335
:10244C004B607B681B6803F00803002B09D0124B10
:10245C005B6823F460527B681B69DB000E491343F5
:10246C004B6000F021F802460B4B5B681B0903F034
:10247C000F030A49CB5C22FA03F3094A1360094B98
:10248C001B681846FFF7A4F9002318461037BD4601
:10249C0080BD00BF0020024000100240EC3B000851
:1024AC00080000200C00002080B487B000AF00238F
:1024BC00FB600023BB6000237B6100237B60002357
:1024CC003B611E4B5B68FB60FB6803F00C03042B49
:1024DC0002D0082B03D027E0194B3B6127E0FB68A7
:1024EC009B0C03F00F03174AD35C7B60FB6803F46F
:1024FC008033002B10D0114B5B685B0C03F0010395
:10250C00114AD35CBB607B680D4A03FB02F2BB68CB
:10251C00B2FBF3F37B6104E07B680C4A02FB03F330
:10252C007B617B693B6102E0054B3B6100BF3B6912
:10253C0018461C37BD4680BC704700BF00100240D7
:10254C0000127A00043C0008143C000800093D000D
:10255C0080B400AF024B1B681846BD4680BC704768
:10256C000800002080B500AFFFF7F2FF0246054BD4
:10257C005B681B0A03F007030349CB5C22FA03F3E5
:10258C00184680BD00100240FC3B000880B500AF2F
:10259C00FFF7DEFF0246054B5B68DB0A03F007031F
:1025AC000349CB5C22FA03F3184680BD00100240AD
:1025BC00FC3B000880B485B000AF78600A4B1B6808
:1025CC000A4AA2FB03235B0A7A6802FB03F3FB6053
:1025DC0000BFFB685A1EFA60002BF9D100BF00BF88
:1025EC001437BD4680BC704708000020D34D6210E4
:1025FC0080B582B000AF78607B68002B01D10123DD
:10260C0041E07B6893F83D30DBB2002B06D17B6850
:10261C00002283F83C207868FFF70CF87B680222D4
:10262C0083F83D207B681A687B6804331946104692
:10263C0000F03AF97B68012283F846207B6801227E
:10264C0083F83E207B68012283F83F207B680122BF
:10265C0083F840207B68012283F841207B680122AB
:10266C0083F842207B68012283F843207B68012297
:10267C0083F844207B68012283F845207B68012283
:10268C0083F83D20002318460837BD4680BD000066
:10269C0080B485B000AF78607B6893F83D30DBB2D6
:1026AC00012B01D001232DE07B68022283F83D2011
:1026BC007B681B68164A934209D07B681B68B3F190
:1026CC00804F04D07B681B68124A934211D17B68FF
:1026DC001B689B6803F00703FB60FB68062B10D09C
:1026EC007B681B681A687B681B6842F001021A60E1
:1026FC0007E07B681B681A687B681B6842F0010264
:10270C001A60002318461437BD4680BC704700BFC2
:10271C00002C01400004004080B584B000AF78600C
:10272C0039600023FB737B6893F83C30012B01D19B
:10273C000223B4E07B68012283F83C207B680222F0
:10274C0083F83D207B681B689B68BB60BB6823F0EB
:10275C007703BB60BB6823F47F43BB607B681B685B
:10276C00BA689A603B681B68B3F5005F3ED0B3F55E
:10277C00005F00F28780B3F5805F00F08680B3F5D0
:10278C00805F7FD8702B1AD0702B7BD8602B50D0E9
:10279C00602B77D8502B3CD0502B73D8402B58D073
:1027AC00402B6FD8302B64D0302B6BD8202B60D0C3
:1027BC00202B67D8002B5CD0102B5AD062E07B68A2
:1027CC0018683B6899683B685A683B68DB6800F09E
:1027DC0046F97B681B689B68BB60BB6843F077035A
:1027EC00BB607B681B68BA689A604FE07B681868AE
:1027FC003B6899683B685A683B68DB6800F02FF9C6
:10280C007B681B689A687B681B6842F480429A60FC
:10281C003CE07B6818683B6859683B68DB681A4683
:10282C0000F0A6F87B681B685021184600F0FDF8F4
:10283C002CE07B6818683B6859683B68DB681A4673
:10284C0000F0C4F87B681B686021184600F0EDF8B6
:10285C001CE07B6818683B6859683B68DB681A4663
:10286C0000F086F87B681B684021184600F0DDF804
:10287C000CE07B681A683B681B681946104600F030
:10288C00D4F803E00123FB7300E000BF7B68012256
:10289C0083F83D207B68002283F83C20FB7B1846A4
:1028AC001037BD4680BD000080B485B000AF7860A5
:1028BC0039607B681B68FB607B682B4A934207D0AE
:1028CC007B68B3F1804F03D07B68284A934208D1D0
:1028DC00FB6823F07003FB603B685B68FA6813438A
:1028EC00FB607B68204A934207D07B68B3F1804F32
:1028FC0003D07B681D4A934208D1FB6823F44073D4
:10290C00FB603B68DB68FA681343FB60FB6823F0F1
:10291C0080023B685B691343FB607B68FA681A6052
:10292C003B689A687B68DA623B681A687B689A62D3
:10293C007B680D4A934203D13B681A697B681A6322
:10294C007B6801225A617B681B6903F00103002B31
:10295C0005D07B681B6923F001027B681A6100BFFC
:10296C001437BD4680BC7047002C01400004004069
:10297C0080B487B000AFF860B9607A60FB681B6AFE
:10298C007B61FB681B6A23F00102FB681A62FB681F
:10299C009B693B613B6923F0F0033B617B681B0146
:1029AC003A6913433B617B6923F00A037B617A69C3
:1029BC00BB6813437B61FB683A699A61FB687A696F
:1029CC001A6200BF1C37BD4680BC704780B487B00C
:1029DC0000AFF860B9607A60FB681B6A7B61FB68CA
:1029EC001B6A23F01002FB681A62FB689B693B614F
:1029FC003B6923F470433B617B681B033A691343C7
:102A0C003B617B6923F0A0037B61BB681B017A6986
:102A1C0013437B61FB683A699A61FB687A691A62B5
:102A2C0000BF1C37BD4680BC704780B485B000AF7A
:102A3C00786039607B689B68FB60FB6823F07003EF
:102A4C00FB603A68FB68134343F00703FB607B6849
:102A5C00FA689A6000BF1437BD4680BC704780B4DA
:102A6C0087B000AFF860B9607A603B60FB689B6828
:102A7C007B617B6923F47F437B613B681A027B6833
:102A8C001A43BB6813437A6913437B61FB687A6909
:102A9C009A6000BF1C37BD4680BC704780B485B0BF
:102AAC0000AF786039607B6893F83C30012B01D122
:102ABC00022341E07B68012283F83C207B680222E0
:102ACC0083F83D207B681B685B68FB607B681B6838
:102ADC009B68BB60FB6823F07003FB603B681B6862
:102AEC00FA681343FB607B681B68FA685A607B6862
:102AFC001B68144A934209D07B681B68B3F1804F62
:102B0C0004D07B681B68104A93420CD1BB6823F03D
:102B1C008003BB603B685B68BA681343BB607B682F
:102B2C001B68BA689A607B68012283F83D207B6839
:102B3C00002283F83C20002318461437BD4680BC85
:102B4C00704700BF002C01400004004080B582B0EB
:102B5C0000AF78607B68002B01D1012342E07B68D9
:102B6C0093F84130DBB2002B06D17B68002283F84E
:102B7C0040207868FEF7A6FD7B68242283F841206C
:102B8C007B681B68DA687B681B6822F40052DA6089
:102B9C00786800F02BF87B681B681A697B681B68E7
:102BAC0022F490421A617B681B685A697B681B6827
:102BBC0022F02A025A617B681B68DA687B681B6802
:102BCC0042F40052DA607B6800225A647B6820224F
:102BDC0083F841207B68202283F842207B68002206
:102BEC005A63002318460837BD4680BD80B584B0B3
:102BFC0000AF78607B681B681B6923F440517B68CD
:102C0C00DA687B681B680A431A617B689A687B6880
:102C1C001B691A437B685B691343BB607B681B6849
:102C2C00DB6823F4B05323F00C037A681268B9689C
:102C3C000B43D3607B681B685B6923F440717B6832
:102C4C009A697B681B680A435A617B681B682C4A2B
:102C5C00934203D1FFF79AFCF86002E0FFF782FC85
:102C6C00F860FA6813469B0013449A001A447B6878
:102C7C005B689B00B2FBF3F3224AA2FB03235B09C4
:102C8C001901FA6813469B0013449A001A447B6896
:102C9C005B689B00B2FBF3F21A4BA3FB02035B09CC
:102CAC00642000FB03F3D31A1B013233154AA2FB39
:102CBC0003235B0903F0F0031944FA6813469B00E5
:102CCC0013449A001A447B685B689B00B2FBF3F2D6
:102CDC000C4BA3FB02035B09642000FB03F3D31A28
:102CEC001B013233074AA2FB03235B0903F00F02DB
:102CFC007B681B680A449A6000BF1037BD4680BDD4
:102D0C00003801401F85EB51B1F90C20F8B51607BE
:102D1C0005460C4654D44B68002B02DC0B6C002B84
:102D2C0048DDE66A002E45D0002312F480522F684D
:102D3C00216A2B6030D0626DA389590705D5636871
:102D4C00D21A636B0BB1236CD21A00232846E66AA5
:102D5C00216AB047431CA38906D129681D292BD8A9
:102D6C00284A0A41D60727D4002262602269D90476
:102D7C00226004D5421C01D12B6803B96065616BDC
:102D8C002F60B9B104F14403994202D0284600F0F7
:102D9C000BFA002363630DE001232846B04702467B
:102DAC00501CC9D12B68002BC6D01D2B01D0162B63
:102DBC001DD12F60002021E043F040031BB21AE02C
:102DCC000F69002FF6D0930718BF00230E6808BFB9
:102DDC004B69F61B0F608B60002EEBDD33463A46D9
:102DEC002846216AD4F828C0E047002807DCB4F94B
:102DFC000C3043F040034FF0FF30A381F8BD074483
:102E0C00361AE9E7FEFFBFDF38B50B6905460C46FD
:102E1C0013B90025284638BD18B1036A0BB900F068
:102E2C00BBF8B4F90C30002BF3D0626ED00704D48D
:102E3C00990502D4A06D00F0B4F928462146FFF79D
:102E4C0063FF636E0546DA07E4D4A3899B05E1D4DE
:102E5C00A06D00F0A7F9DDE7014620B9044A054949
:102E6C00054800F0B1B8054B1868FFF7CDBF00BF9F
:102E7C0014000020152E0008240000202000002043
:102E8C00002310B50446C0E90033C0E90433836065
:102E9C0081814366C2818361194608225C3000F04F
:102EAC0006F90D4B246263620C4BA3620C4BE3627C
:102EBC000C4B23630C4B9C4206D003F168029442EA
:102ECC0002D0D0339C4205D104F15800BDE810402B
:102EDC0000F066B910BD00BF35300008573000084F
:102EEC008F300008B330000840010020024A03492B
:102EFC00034800F069B800BF14000020152E00082C
:102F0C002400002041680C4B10B59942044601D0B6
:102F1C00FFF77AFFA168094B994202D02046FFF7D0
:102F2C0073FFE168064B994204D02046BDE810407F
:102F3C00FFF76ABF10BD00BF40010020A8010020B0
:102F4C001002002010B50B4B0B4C0C4A20461A609B
:102F5C0004210022FFF794FF04F1680001220921EB
:102F6C00FFF78EFF04F1D0000222BDE810401221C1
:102F7C00FFF786BF7802002040010020F92E0008E0
:102F8C00014800F00EB900BF81020020014800F09A
:102F9C0009B900BF8102002010B50446FFF7F0FF0D
:102FAC00236A1BB1BDE81040FFF7F0BF044B23624E
:102FBC00044B1B68002BF5D1FFF7C4FFF2E700BFF1
:102FCC00112F0008780200202DE9F84307468846A7
:102FDC0014460026D4E90195B9F1010905D52468F8
:102FEC00002CF7D13046BDE8F883AB89012B07D90B
:102FFC00B5F90E30013303D029463846C047064395
:10300C006835E9E70FB407B5064904AB086853F80F
:10301C00042B8168019300F0E5F903B05DF804EB33
:10302C0004B070472000002010B50C46B1F90E100A
:10303C0000F068F80028ABBF636DA3891B1823F45C
:10304C008053ACBF6365A38110BD2DE9F0411F46D1
:10305C008B890546DB050C46164605D50223002256
:10306C00B1F90E1000F03CF8A389324623F48053DA
:10307C00A38128463B46B4F90E10BDE8F04100F0A0
:10308C0053B810B50C46B1F90E1000F029F8431CDA
:10309C00A38915BF606523F4805343F48053A38147
:1030AC0018BFA38110BDB1F90E1000F009B803468A
:1030BC000244934200D1704703F8011BF9E700006A
:1030CC0038B50023054D044608462B60FEF7F5F98C
:1030DC00431C02D12B6803B1236038BD7C02002055
:1030EC0038B50446084611460022054D2A601A469A
:1030FC00FEF707FA431C02D12B6803B1236038BDDD
:10310C007C02002038B50446084611460022054DC5
:10311C002A601A46FEF798F9431C02D12B6803B1BA
:10312C00236038BD7C02002038B5044608461146A1
:10313C000022054D2A601A46FEF7A3F9431C02D162
:10314C002B6803B1236038BD7C020020014B18684A
:10315C00704700BF2000002070B500260C4D0D4CB0
:10316C00641BA410A64209D100F01CFD00260A4DD8
:10317C000A4C641BA410A64205D170BD55F8043B43
:10318C0098470136EEE755F8043B98470136F2E7CD
:10319C004C3C00084C3C00084C3C0008503C0008DF
:1031AC00704770477047000038B50546002940D07D
:1031BC0051F8043C0C1F002BB8BFE41800F0DEF8EB
:1031CC001C4A136833B9636014602846BDE8384064
:1031DC0000F0DAB8A34208D9206821188B4201BF4D
:1031EC0019685B6809182160EDE71A465B680BB13A
:1031FC00A342FAD911685018A0420BD1206801449F
:10320C00501883421160E0D118685B680844106064
:10321C005360DAE702D90C232B60D6E7206821181B
:10322C008B4201BF19685B680918216063605460A8
:10323C00CBE738BD8802002070B50F4E0C463168C4
:10324C00054611B900F00CFC30602146284600F010
:10325C0007FC431C03D14FF0FF34204670BDC41C47
:10326C0024F00304A042F8D0211A284600F0F8FB01
:10327C000130F2D1EFE700BF840200202DE9F843C2
:10328C00CD1C25F0030508350C2D38BF0C25002D61
:10329C00064601DBA94204D90C2333600020BDE8AB
:1032AC00F883DFF8D48000F069F8D8F800301C46B9
:1032BC0044BB29463046FFF7BFFF431C044658D198
:1032CC00D8F800402746002F43D1002C4BD0236860
:1032DC003946304604EB030900F0C2FB814542D16C
:1032EC00216830466D1A2946FFF7A6FF01303AD007
:1032FC0023682B442360D8F800305A6862BBC8F8A6
:10330C0000700FE02268521B20D40B2A17D96119C8
:10331C00A342256018BF5960636808BFC8F8001045
:10332C0062514B60304600F02FF804F10B00231D66
:10333C0020F00700C21A1CBF1B1AA350AFE762682B
:10334C00A3420CBFC8F800205A60EBE72346646820
:10335C00AEE73C467F68B6E71A465B68A342FBD1F2
:10336C0000235360DEE70C233046336000F00CF88A
:10337C0094E70560D6E700BF880200200148FFF7FC
:10338C0010BF00BF800200200148FFF70BBF00BF39
:10339C0080020020936810B4013B002B936007DA85
:1033AC009469A34201DB0A2902D110BC00F0C4BA13
:1033BC001368581C10601970084610BC7047F8B59B
:1033CC0006460F461446D518AC4201D1002007E042
:1033DC003A46304614F8011BFFF7DCFF431CF3D1CF
:1033EC00F8BD00002DE9F04F0D46144698460646F0
:1033FC009DB018B1036A0BB9FFF7CEFD6B6ED90700
:10340C0005D4AB899A0502D4A86DFFF7CAFEAB8927
:10341C001B0701D52B699BB92946304600F0CAFA27
:10342C0070B16B6EDC0704D54FF0FF301DB0BDE8FA
:10343C00F08FAB899805F7D4A86DFFF7B3FEF3E7CF
:10344C000023099320238DF8293030234FF00109F4
:10345C00CDF80C80DFF8A8818DF82A3023469A46E7
:10346C0013F8012B0AB1252AF9D1BAEB040B0BD0B6
:10347C005B46224629463046FFF7A1FF013000F09B
:10348C00A780099A5A4409929AF80030002B00F050
:10349C009F8000234FF0FF32CDE905230AF1010A8A
:1034AC00049307938DF853301A935446052214F85D
:1034BC00011B534800F0E4FA049AD8B9D10644BF72
:1034CC0020238DF85330130744BF2B238DF8533032
:1034DC009AF800302A2B15D0544600204FF00A0CD5
:1034EC00079A214611F8013B303B092B4BD9B0B15F
:1034FC00079214E0A0EB080309FA03F31343A24666
:10350C000493D2E7039B191D1B680391002BBBBFCF
:10351C005B4242F0020207930793B8BF04922378F0
:10352C002E2B0AD163782A2B32D1039B02341A1D1D
:10353C001B68039243EAE3730593DFF8C8A00322E8
:10354C005046217800F09CFA38B14022049BA0EB45
:10355C000A00824013430134049314F8011B062221
:10356C0029488DF8281000F08BFA00283FD0274B03
:10357C001BBB039B073323F0070308330393099BFF
:10358C003B4409936AE70C4601200CFB0232A8E786
:10359C0000234FF00A0C194601340593204610F80D
:1035AC00012B303A092A03D9002BC6D00591C4E768
:1035BC00044601230CFB0121F0E703AB00932A46E0
:1035CC003046134B04A9AFF300800746781CD6D1C4
:1035DC006B6ED90705D4AB899A0502D4A86DFFF799
:1035EC00E1FDAB895B063FF51FAF09981EE703AB06
:1035FC0000932A463046064B04A900F07DF8E4E718
:10360C00163C00081C3C0008203C00080000000090
:10361C00CB3300082DE9F047164698468A680B69AB
:10362C0007469342B8BF1346336091F843200C46CB
:10363C00DDF820900AB1013333602368990642BF4C
:10364C00336802333360256815F0060506D104F1A2
:10365C00190AE36832689B1AAB422BDC94F84330AE
:10366C002268003B18BF0123920630D441463846ED
:10367C0004F14302C847013023D02368226903F0C8
:10368C000603042B14BF002533684FF0000608BF57
:10369C00E56804F11A0408BFED1A54F8123C08BF8F
:1036AC0025EAE5759342C4BF9B1AED18B5421AD1B1
:1036BC00002008E00123524641463846C8470130F5
:1036CC0003D14FF0FF30BDE8F0870135C1E7302062
:1036DC00E11881F843005A1C94F845102244023337
:1036EC0082F84310C2E70123224641463846C847B8
:1036FC000130E6D00136D9E72DE9FF470F7E914620
:10370C00782F80460C469A460C9E01F1430207D84E
:10371C00622F0AD8002F00F0D380582F00F0BA8007
:10372C0004F1420684F842703AE0A7F16303152BCA
:10373C00F6D801A151F823F09D370008B1370008E5
:10374C002D3700082D3700082D3700082D370008BD
:10375C00B13700082D3700082D3700082D37000829
:10376C002D370008B3380008DB3700086D38000827
:10377C002D3700082D370008D53800082D370008E4
:10378C00DB3700082D3700082D3700087538000886
:10379C0033681A1D1B68326004F1420684F842300B
:1037AC0001239EE033682068191D3160060601D59F
:1037BC001D6803E04506FBD5B3F90050002D03DA74
:1037CC002D236D4284F843300A23594811E02168B7
:1037DC003368080653F8045B02D4490648BFADB2FF
:1037EC006F2F336014BF0A2308235148002184F83B
:1037FC0043106668002EA8BF2168A660A4BF21F004
:10380C00040121600DB9002E4BD01646B5FBF3F127
:10381C0003FB1157C75D06F8017D2F46BB420D46D1
:10382C00F4D9082B0BD12368DF0708D5236961680D
:10383C009942DEBF302306F8013C06F1FF36921B9D
:10384C0022614B4621464046CDF800A003AAFFF763
:10385C00E1FE01304AD14FF0FF3004B0BDE8F087F3
:10386C00236843F0200323607827324884F845709E
:10387C00236831681F0651F8045B02D45F0648BF09
:10388C00ADB23160D90744BF43F0200323601DB1B2
:10389C001023ABE72648E9E7236823F020032360D5
:1038AC00F6E71646BDE733682568181D6169306078
:1038BC002E061B6801D5196002E06806FBD519803D
:1038CC00002316462361BCE7336800211A1D3260C1
:1038DC001E686268304600F0D3F808B1801B606047
:1038EC0063682361002384F84330AAE732464946D3
:1038FC0040462369D0470130ADD023689B0713D4D1
:10390C00E068039B9842B8BF1846A6E701233246ED
:10391C0049464046D04701309DD00135E3680399B4
:10392C005B1AAB42F2DCEBE7002504F11906F5E774
:10393C00273C0008383C0008F8B50E4614460546EE
:10394C0018B1036A0BB9FFF727FBA369A360A3891E
:10395C001A0701D5236943B92146284600F02AF8F5
:10396C0018B14FF0FF373846F8BD23682269F6B21C
:10397C00981A63693746834205DC21462846FFF7CF
:10398C0043FA0028EDD1A368013BA36023685A1CBD
:10399C0022601E706269431C9A4204D0A389DB0723
:1039AC00E1D50A2EDFD121462846FFF72DFA002853
:1039BC00D9D0D6E738B5294B054618680C4618B14E
:1039CC00036A0BB9FFF7E8FAB4F90C30190722D4E3
:1039DC00DA0607D409222A6043F040034FF0FF3087
:1039EC00A38133E0580712D5616B41B104F1440354
:1039FC00994202D02846FFF7D7FB00236363A389C3
:103A0C0023F02403A3810023636023692360A3892B
:103A1C0043F00803A38123694BB9A38903F42073F2
:103A2C00B3F5007F03D02146284600F05CF8B4F9CA
:103A3C000C3013F001020AD00022A26062695242DB
:103A4C00A261226942B913F08000C5D138BD990733
:103A5C0058BF6269A260F4E70020F7E7200000205D
:103A6C0038B50023054D044608462B60FDF756FD7E
:103A7C00431C02D12B6803B1236038BD7C020020AB
:103A8C00034610B5C9B202449342184601D1002036
:103A9C0003E0047801338C42F6D110BD70B50C46AE
:103AAC00B1F90E10154600291E4696B00CDAA38902
:103ABC00002113F0800F14BF40234FF480630020CB
:103ACC0031602B6016B070BD6A4600F049F80028D2
:103ADC00EDDB019901F47041A1F5005359425941B4
:103AEC004FF48063EBE78B89F7B59D0706460C46D0
:103AFC0007D504F14703236023610123636103B0FD
:103B0C00F0BD6A4601ABFFF7C9FF009F0546394679
:103B1C003046FFF7B3FB48B9B4F90C309A05EED434
:103B2C0023F0030343F00203A381E2E7A389C4E972
:103B3C00040743F08003A381019B20605BB13046F6
:103B4C00B4F90E1000F01EF828B1A38923F003037A
:103B5C0043F00103A381A3891D43A581CFE7000096
:103B6C0038B50023064D0446084611462B60FDF778
:103B7C00AFFC431C02D12B6803B1236038BD00BFDE
:103B8C007C02002038B50023054D044608462B6006
:103B9C00FDF7ADFC431C02D12B6803B1236038BD8B
:103BAC007C020020F8B500BFF8BC08BC9E467047EC
:0C3BBC00F8B500BFF8BC08BC9E4670477E
:103BC8004448542053746172742E2E2E2E2E0000F9
:103BD80054656D7065726174757265203D20256449
:103BE80000000000000000000000000001020304C3
:103BF8000607080900000000010203040203040587
:103C0800060708090A0B0C0D0E0F10100102232DD0
:103C1800302B2000686C4C006566674546470030CD
:103C2800313233343536373839414243444546001A
:103C3800303132333435363738396162636465661A
:043C48000000000078
:043C4C00310100083A
:043C50000D0100085A
:103C5400004400400444004000127A0010000000B8
:103C640001000000000000000300000040010020EB
:103C7400240000200000000040010020A8010020D2
:103C840010020020000000000000000000000000FE
:103C94000000000000000000000000000000000020
:103CA4000000000000000000000000000000000010
:103CB4000000000000000000000000000000000000
:040000050800176573
:00000001FF
